{
  "address": "0x18D45d68de514cC81e822a2B6568289668B17267",
  "abi": [
    {
      "inputs": [
        {
          "internalType": "contract GondolaToken",
          "name": "_gondola",
          "type": "address"
        }
      ],
      "stateMutability": "nonpayable",
      "type": "constructor"
    },
    {
      "anonymous": false,
      "inputs": [
        {
          "indexed": true,
          "internalType": "address",
          "name": "user",
          "type": "address"
        },
        {
          "indexed": true,
          "internalType": "uint256",
          "name": "pid",
          "type": "uint256"
        },
        {
          "indexed": false,
          "internalType": "uint256",
          "name": "amount",
          "type": "uint256"
        }
      ],
      "name": "Deposit",
      "type": "event"
    },
    {
      "anonymous": false,
      "inputs": [
        {
          "indexed": true,
          "internalType": "address",
          "name": "user",
          "type": "address"
        },
        {
          "indexed": true,
          "internalType": "uint256",
          "name": "pid",
          "type": "uint256"
        },
        {
          "indexed": false,
          "internalType": "uint256",
          "name": "amount",
          "type": "uint256"
        }
      ],
      "name": "EmergencyWithdraw",
      "type": "event"
    },
    {
      "anonymous": false,
      "inputs": [
        {
          "indexed": true,
          "internalType": "address",
          "name": "previousOwner",
          "type": "address"
        },
        {
          "indexed": true,
          "internalType": "address",
          "name": "newOwner",
          "type": "address"
        }
      ],
      "name": "OwnershipTransferred",
      "type": "event"
    },
    {
      "anonymous": false,
      "inputs": [
        {
          "indexed": true,
          "internalType": "address",
          "name": "user",
          "type": "address"
        },
        {
          "indexed": true,
          "internalType": "uint256",
          "name": "pid",
          "type": "uint256"
        },
        {
          "indexed": false,
          "internalType": "uint256",
          "name": "amount",
          "type": "uint256"
        }
      ],
      "name": "Withdraw",
      "type": "event"
    },
    {
      "inputs": [],
      "name": "BONUS_MULTIPLIER",
      "outputs": [
        {
          "internalType": "uint256",
          "name": "",
          "type": "uint256"
        }
      ],
      "stateMutability": "view",
      "type": "function"
    },
    {
      "inputs": [
        {
          "internalType": "uint256",
          "name": "_allocPoint",
          "type": "uint256"
        },
        {
          "internalType": "contract IERC20",
          "name": "_lpToken",
          "type": "address"
        },
        {
          "internalType": "bool",
          "name": "_withUpdate",
          "type": "bool"
        }
      ],
      "name": "add",
      "outputs": [],
      "stateMutability": "nonpayable",
      "type": "function"
    },
    {
      "inputs": [
        {
          "internalType": "uint256",
          "name": "_pid",
          "type": "uint256"
        },
        {
          "internalType": "uint256",
          "name": "_amount",
          "type": "uint256"
        }
      ],
      "name": "deposit",
      "outputs": [],
      "stateMutability": "nonpayable",
      "type": "function"
    },
    {
      "inputs": [
        {
          "internalType": "uint256",
          "name": "_pid",
          "type": "uint256"
        }
      ],
      "name": "emergencyWithdraw",
      "outputs": [],
      "stateMutability": "nonpayable",
      "type": "function"
    },
    {
      "inputs": [],
      "name": "endAt",
      "outputs": [
        {
          "internalType": "uint256",
          "name": "",
          "type": "uint256"
        }
      ],
      "stateMutability": "view",
      "type": "function"
    },
    {
      "inputs": [
        {
          "internalType": "uint256",
          "name": "_from",
          "type": "uint256"
        },
        {
          "internalType": "uint256",
          "name": "_to",
          "type": "uint256"
        }
      ],
      "name": "getMultiplier",
      "outputs": [
        {
          "internalType": "uint256",
          "name": "",
          "type": "uint256"
        }
      ],
      "stateMutability": "view",
      "type": "function"
    },
    {
      "inputs": [],
      "name": "gondola",
      "outputs": [
        {
          "internalType": "contract GondolaToken",
          "name": "",
          "type": "address"
        }
      ],
      "stateMutability": "view",
      "type": "function"
    },
    {
      "inputs": [],
      "name": "gondolaPerSec",
      "outputs": [
        {
          "internalType": "uint256",
          "name": "",
          "type": "uint256"
        }
      ],
      "stateMutability": "view",
      "type": "function"
    },
    {
      "inputs": [],
      "name": "massUpdatePools",
      "outputs": [],
      "stateMutability": "nonpayable",
      "type": "function"
    },
    {
      "inputs": [
        {
          "internalType": "uint256",
          "name": "_pid",
          "type": "uint256"
        }
      ],
      "name": "migrate",
      "outputs": [],
      "stateMutability": "nonpayable",
      "type": "function"
    },
    {
      "inputs": [],
      "name": "migrator",
      "outputs": [
        {
          "internalType": "contract IMigratorChef",
          "name": "",
          "type": "address"
        }
      ],
      "stateMutability": "view",
      "type": "function"
    },
    {
      "inputs": [],
      "name": "owner",
      "outputs": [
        {
          "internalType": "address",
          "name": "",
          "type": "address"
        }
      ],
      "stateMutability": "view",
      "type": "function"
    },
    {
      "inputs": [
        {
          "internalType": "uint256",
          "name": "_pid",
          "type": "uint256"
        },
        {
          "internalType": "address",
          "name": "_user",
          "type": "address"
        }
      ],
      "name": "pendingGondola",
      "outputs": [
        {
          "internalType": "uint256",
          "name": "",
          "type": "uint256"
        }
      ],
      "stateMutability": "view",
      "type": "function"
    },
    {
      "inputs": [
        {
          "internalType": "uint256",
          "name": "",
          "type": "uint256"
        }
      ],
      "name": "poolInfo",
      "outputs": [
        {
          "internalType": "contract IERC20",
          "name": "lpToken",
          "type": "address"
        },
        {
          "internalType": "uint256",
          "name": "allocPoint",
          "type": "uint256"
        },
        {
          "internalType": "uint256",
          "name": "lastRewardAt",
          "type": "uint256"
        },
        {
          "internalType": "uint256",
          "name": "accGondolaPerShare",
          "type": "uint256"
        }
      ],
      "stateMutability": "view",
      "type": "function"
    },
    {
      "inputs": [],
      "name": "poolLength",
      "outputs": [
        {
          "internalType": "uint256",
          "name": "",
          "type": "uint256"
        }
      ],
      "stateMutability": "view",
      "type": "function"
    },
    {
      "inputs": [],
      "name": "renounceOwnership",
      "outputs": [],
      "stateMutability": "nonpayable",
      "type": "function"
    },
    {
      "inputs": [
        {
          "internalType": "uint256",
          "name": "_pid",
          "type": "uint256"
        },
        {
          "internalType": "uint256",
          "name": "_allocPoint",
          "type": "uint256"
        },
        {
          "internalType": "bool",
          "name": "_withUpdate",
          "type": "bool"
        }
      ],
      "name": "set",
      "outputs": [],
      "stateMutability": "nonpayable",
      "type": "function"
    },
    {
      "inputs": [
        {
          "internalType": "contract IMigratorChef",
          "name": "_migrator",
          "type": "address"
        }
      ],
      "name": "setMigrator",
      "outputs": [],
      "stateMutability": "nonpayable",
      "type": "function"
    },
    {
      "inputs": [
        {
          "internalType": "uint256",
          "name": "_startAt",
          "type": "uint256"
        },
        {
          "internalType": "uint256",
          "name": "_endAt",
          "type": "uint256"
        },
        {
          "internalType": "uint256",
          "name": "_gondolaPerSec",
          "type": "uint256"
        }
      ],
      "name": "setRewards",
      "outputs": [],
      "stateMutability": "nonpayable",
      "type": "function"
    },
    {
      "inputs": [],
      "name": "startAt",
      "outputs": [
        {
          "internalType": "uint256",
          "name": "",
          "type": "uint256"
        }
      ],
      "stateMutability": "view",
      "type": "function"
    },
    {
      "inputs": [],
      "name": "totalAllocPoint",
      "outputs": [
        {
          "internalType": "uint256",
          "name": "",
          "type": "uint256"
        }
      ],
      "stateMutability": "view",
      "type": "function"
    },
    {
      "inputs": [
        {
          "internalType": "address",
          "name": "newOwner",
          "type": "address"
        }
      ],
      "name": "transferOwnership",
      "outputs": [],
      "stateMutability": "nonpayable",
      "type": "function"
    },
    {
      "inputs": [
        {
          "internalType": "uint256",
          "name": "_pid",
          "type": "uint256"
        }
      ],
      "name": "updatePool",
      "outputs": [],
      "stateMutability": "nonpayable",
      "type": "function"
    },
    {
      "inputs": [
        {
          "internalType": "uint256",
          "name": "",
          "type": "uint256"
        },
        {
          "internalType": "address",
          "name": "",
          "type": "address"
        }
      ],
      "name": "userInfo",
      "outputs": [
        {
          "internalType": "uint256",
          "name": "amount",
          "type": "uint256"
        },
        {
          "internalType": "uint256",
          "name": "rewardDebt",
          "type": "uint256"
        }
      ],
      "stateMutability": "view",
      "type": "function"
    },
    {
      "inputs": [
        {
          "internalType": "uint256",
          "name": "_pid",
          "type": "uint256"
        },
        {
          "internalType": "uint256",
          "name": "_amount",
          "type": "uint256"
        }
      ],
      "name": "withdraw",
      "outputs": [],
      "stateMutability": "nonpayable",
      "type": "function"
    }
  ],
  "transactionHash": "0xd6e42ed2569b7dd02873acaf3040e0fab159573b6d80f82068ad1799b4c81eaf",
  "args": [
    "0xe9eAdD6873EacCF1b88c9eeC4dC9957FA88840c7"
  ],
  "solcInputHash": "82f7a6c493cf3403b41a8529902f9003",
  "bytecode": "0x6080604052600060075534801561001557600080fd5b506040516124e73803806124e78339818101604052602081101561003857600080fd5b505160006100446100b3565b600080546001600160a01b0319166001600160a01b0383169081178255604051929350917f8be0079c531659141344cd1fd0a4f28419497f9722a3daafe3b4186f6b6457e0908290a350600180546001600160a01b0319166001600160a01b03929092169190911790556100b7565b3390565b612421806100c66000396000f3fe608060405234801561001057600080fd5b50600436106101a35760003560e01c806364482f79116100ee5780638da5cb5b11610097578063c744656511610071578063c744656514610456578063e2bbb1581461045e578063f2fde38b14610481578063f36d1e4e146104b4576101a3565b80638da5cb5b146103d95780638dbb1e3a146103e157806393f1a40b14610404576101a3565b80637cc3ae8c116100c85780637cc3ae8c146103c15780637cd07e47146103c95780638aa28550146103d1576101a3565b806364482f791461035d5780636b03ac5f14610388578063715018a6146103b9576101a3565b80633eb181961161015057806351eb05a61161012a57806351eb05a61461031b5780635312ea8e14610338578063630b5ba114610355576101a3565b80633eb18196146102a2578063441a3e70146102db578063454b0608146102fe576101a3565b80631eaaa045116101815780631eaaa0451461022457806323cf3118146102675780633539c4fd1461029a576101a3565b8063081e3eda146101a85780631526fe27146101c257806317caf6f11461021c575b600080fd5b6101b06104dd565b60408051918252519081900360200190f35b6101df600480360360208110156101d857600080fd5b50356104e3565b6040805173ffffffffffffffffffffffffffffffffffffffff90951685526020850193909352838301919091526060830152519081900360800190f35b6101b0610531565b6102656004803603606081101561023a57600080fd5b5080359073ffffffffffffffffffffffffffffffffffffffff60208201351690604001351515610537565b005b6102656004803603602081101561027d57600080fd5b503573ffffffffffffffffffffffffffffffffffffffff166106f6565b6101b06107b4565b6101b0600480360360408110156102b857600080fd5b508035906020013573ffffffffffffffffffffffffffffffffffffffff166107ba565b610265600480360360408110156102f157600080fd5b5080359060200135610959565b6102656004803603602081101561031457600080fd5b5035610ab8565b6102656004803603602081101561033157600080fd5b5035610df4565b6102656004803603602081101561034e57600080fd5b5035610fdf565b610265611087565b6102656004803603606081101561037357600080fd5b508035906020810135906040013515156110aa565b61039061119a565b6040805173ffffffffffffffffffffffffffffffffffffffff9092168252519081900360200190f35b6102656111b6565b6101b061129c565b6103906112a2565b6101b06112be565b6103906112c3565b6101b0600480360360408110156103f757600080fd5b50803590602001356112df565b61043d6004803603604081101561041a57600080fd5b508035906020013573ffffffffffffffffffffffffffffffffffffffff16611437565b6040805192835260208301919091528051918290030190f35b6101b061145b565b6102656004803603604081101561047457600080fd5b5080359060200135611461565b6102656004803603602081101561049757600080fd5b503573ffffffffffffffffffffffffffffffffffffffff16611573565b610265600480360360608110156104ca57600080fd5b50803590602081013590604001356116c9565b60055490565b600581815481106104f057fe5b6000918252602090912060049091020180546001820154600283015460039093015473ffffffffffffffffffffffffffffffffffffffff9092169350919084565b60075481565b61053f611753565b60005473ffffffffffffffffffffffffffffffffffffffff9081169116146105ae576040805162461bcd60e51b815260206004820181905260248201527f4f776e61626c653a2063616c6c6572206973206e6f7420746865206f776e6572604482015290519081900360640190fd5b80156105bc576105bc611087565b600060085442116105cf576008546105d1565b425b6007549091506105e19085611757565b6007556040805160808101825273ffffffffffffffffffffffffffffffffffffffff94851681526020810195865290810191825260006060820181815260058054600181018255925291517f036b6384b5eca791c62761152d0c79bb0604c104a5fb6f4eb0703f3154bb3db0600490920291820180547fffffffffffffffffffffffff000000000000000000000000000000000000000016919096161790945593517f036b6384b5eca791c62761152d0c79bb0604c104a5fb6f4eb0703f3154bb3db1840155517f036b6384b5eca791c62761152d0c79bb0604c104a5fb6f4eb0703f3154bb3db28301555090517f036b6384b5eca791c62761152d0c79bb0604c104a5fb6f4eb0703f3154bb3db390910155565b6106fe611753565b60005473ffffffffffffffffffffffffffffffffffffffff90811691161461076d576040805162461bcd60e51b815260206004820181905260248201527f4f776e61626c653a2063616c6c6572206973206e6f7420746865206f776e6572604482015290519081900360640190fd5b600480547fffffffffffffffffffffffff00000000000000000000000000000000000000001673ffffffffffffffffffffffffffffffffffffffff92909216919091179055565b60035481565b600080600584815481106107ca57fe5b6000918252602080832087845260068252604080852073ffffffffffffffffffffffffffffffffffffffff898116875290845281862060049586029093016003810154815484517f70a082310000000000000000000000000000000000000000000000000000000081523098810198909852935191985093969395939492909116926370a08231926024808301939192829003018186803b15801561086e57600080fd5b505afa158015610882573d6000803e3d6000fd5b505050506040513d602081101561089857600080fd5b50516002850154909150421180156108af57508015155b1561091b5760006108c48560020154426112df565b905060006108f76007546108f188600101546108eb600354876117b190919063ffffffff16565b906117b1565b9061180a565b905061091661090f846108f18464e8d4a510006117b1565b8590611757565b935050505b600061094b846001015461094564e8d4a510006108f18789600001546117b190919063ffffffff16565b9061184c565b955050505050505b92915050565b60006005838154811061096857fe5b6000918252602080832086845260068252604080852033865290925292208054600490920290920192508311156109e6576040805162461bcd60e51b815260206004820152601260248201527f77697468647261773a206e6f7420676f6f640000000000000000000000000000604482015290519081900360640190fd5b6109ef84610df4565b6000610a1d826001015461094564e8d4a510006108f1876003015487600001546117b190919063ffffffff16565b9050610a29338261188e565b8154610a35908561184c565b8083556003840154610a529164e8d4a51000916108f191906117b1565b60018301558254610a7a9073ffffffffffffffffffffffffffffffffffffffff163386611a91565b604080518581529051869133917ff279e6a1f5e320cca91135676d9cb6e44ca8a08c0b88342bcdb1144f6511b5689181900360200190a35050505050565b60045473ffffffffffffffffffffffffffffffffffffffff16610b22576040805162461bcd60e51b815260206004820152601460248201527f6d6967726174653a206e6f206d69677261746f72000000000000000000000000604482015290519081900360640190fd5b600060058281548110610b3157fe5b600091825260208083206004928302018054604080517f70a0823100000000000000000000000000000000000000000000000000000000815230958101959095525191955073ffffffffffffffffffffffffffffffffffffffff16939284926370a0823192602480840193829003018186803b158015610bb057600080fd5b505afa158015610bc4573d6000803e3d6000fd5b505050506040513d6020811015610bda57600080fd5b5051600454909150610c069073ffffffffffffffffffffffffffffffffffffffff848116911683611b1e565b6000600460009054906101000a900473ffffffffffffffffffffffffffffffffffffffff1673ffffffffffffffffffffffffffffffffffffffff1663ce5494bb846040518263ffffffff1660e01b8152600401808273ffffffffffffffffffffffffffffffffffffffff168152602001915050602060405180830381600087803b158015610c9357600080fd5b505af1158015610ca7573d6000803e3d6000fd5b505050506040513d6020811015610cbd57600080fd5b5051604080517f70a08231000000000000000000000000000000000000000000000000000000008152306004820152905191925073ffffffffffffffffffffffffffffffffffffffff8316916370a0823191602480820192602092909190829003018186803b158015610d2f57600080fd5b505afa158015610d43573d6000803e3d6000fd5b505050506040513d6020811015610d5957600080fd5b50518214610dae576040805162461bcd60e51b815260206004820152600c60248201527f6d6967726174653a206261640000000000000000000000000000000000000000604482015290519081900360640190fd5b83547fffffffffffffffffffffffff00000000000000000000000000000000000000001673ffffffffffffffffffffffffffffffffffffffff9190911617909255505050565b600060058281548110610e0357fe5b9060005260206000209060040201905080600201544211610e245750610fdc565b8054604080517f70a08231000000000000000000000000000000000000000000000000000000008152306004820152905160009273ffffffffffffffffffffffffffffffffffffffff16916370a08231916024808301926020929190829003018186803b158015610e9457600080fd5b505afa158015610ea8573d6000803e3d6000fd5b505050506040513d6020811015610ebe57600080fd5b5051905080610ed4575042600290910155610fdc565b6000610ee48360020154426112df565b90506000610f0b6007546108f186600101546108eb600354876117b190919063ffffffff16565b600154604080517ffb93210800000000000000000000000000000000000000000000000000000000815230600482015260248101849052905192935073ffffffffffffffffffffffffffffffffffffffff9091169163fb9321089160448082019260009290919082900301818387803b158015610f8757600080fd5b505af1158015610f9b573d6000803e3d6000fd5b50505050610fc9610fbe846108f164e8d4a51000856117b190919063ffffffff16565b600386015490611757565b6003850155505042600290920191909155505b50565b600060058281548110610fee57fe5b600091825260208083208584526006825260408085203380875293529093208054600490930290930180549094506110409273ffffffffffffffffffffffffffffffffffffffff919091169190611a91565b80546040805191825251849133917fbb757047c2b5f3974fe26b7c10f732e7bce710b0952a71082702781e62ae05959181900360200190a360008082556001909101555050565b60055460005b818110156110a65761109e81610df4565b60010161108d565b5050565b6110b2611753565b60005473ffffffffffffffffffffffffffffffffffffffff908116911614611121576040805162461bcd60e51b815260206004820181905260248201527f4f776e61626c653a2063616c6c6572206973206e6f7420746865206f776e6572604482015290519081900360640190fd5b801561112f5761112f611087565b61116c826111666005868154811061114357fe5b90600052602060002090600402016001015460075461184c90919063ffffffff16565b90611757565b600781905550816005848154811061118057fe5b906000526020600020906004020160010181905550505050565b60015473ffffffffffffffffffffffffffffffffffffffff1681565b6111be611753565b60005473ffffffffffffffffffffffffffffffffffffffff90811691161461122d576040805162461bcd60e51b815260206004820181905260248201527f4f776e61626c653a2063616c6c6572206973206e6f7420746865206f776e6572604482015290519081900360640190fd5b6000805460405173ffffffffffffffffffffffffffffffffffffffff909116907f8be0079c531659141344cd1fd0a4f28419497f9722a3daafe3b4186f6b6457e0908390a3600080547fffffffffffffffffffffffff0000000000000000000000000000000000000000169055565b60025481565b60045473ffffffffffffffffffffffffffffffffffffffff1681565b600a81565b60005473ffffffffffffffffffffffffffffffffffffffff1690565b60006113256040518060400160405280601881526020017f312e20737461727441743a20257320656e6441743a2025730000000000000000815250600854600254611c92565b60408051808201909152601881527f312e205f66726f6d3a202573205f746f3a202573202573200000000000000000602082015261136e908484611369818361184c565b611d94565b60085483101561137e5760085492505b60025482111561138e5760025491505b8282101561139e57506000610953565b6113e26040518060400160405280601881526020017f322e20737461727441743a20257320656e6441743a2025730000000000000000815250600854600254611c92565b60408051808201909152601881527f322e205f66726f6d3a202573205f746f3a2025732025732000000000000000006020820152611426908484611369818361184c565b611430828461184c565b9392505050565b60066020908152600092835260408084209091529082529020805460019091015482565b60085481565b60006005838154811061147057fe5b600091825260208083208684526006825260408085203386529092529220600490910290910191506114a184610df4565b8054156114e45760006114d6826001015461094564e8d4a510006108f1876003015487600001546117b190919063ffffffff16565b90506114e2338261188e565b505b81546115089073ffffffffffffffffffffffffffffffffffffffff16333086611ea4565b80546115149084611757565b80825560038301546115319164e8d4a51000916108f191906117b1565b6001820155604080518481529051859133917f90890809c654f11d6e72a28fa60149770a0d11ec6c92319d6ceb2bb0a4ea1a159181900360200190a350505050565b61157b611753565b60005473ffffffffffffffffffffffffffffffffffffffff9081169116146115ea576040805162461bcd60e51b815260206004820181905260248201527f4f776e61626c653a2063616c6c6572206973206e6f7420746865206f776e6572604482015290519081900360640190fd5b73ffffffffffffffffffffffffffffffffffffffff811661163c5760405162461bcd60e51b815260040180806020018281038252602681526020018061231f6026913960400191505060405180910390fd5b6000805460405173ffffffffffffffffffffffffffffffffffffffff808516939216917f8be0079c531659141344cd1fd0a4f28419497f9722a3daafe3b4186f6b6457e091a3600080547fffffffffffffffffffffffff00000000000000000000000000000000000000001673ffffffffffffffffffffffffffffffffffffffff92909216919091179055565b6116d1611753565b60005473ffffffffffffffffffffffffffffffffffffffff908116911614611740576040805162461bcd60e51b815260206004820181905260248201527f4f776e61626c653a2063616c6c6572206973206e6f7420746865206f776e6572604482015290519081900360640190fd5b611748611087565b600355600255600855565b3390565b600082820183811015611430576040805162461bcd60e51b815260206004820152601b60248201527f536166654d6174683a206164646974696f6e206f766572666c6f770000000000604482015290519081900360640190fd5b6000826117c057506000610953565b828202828482816117cd57fe5b04146114305760405162461bcd60e51b815260040180806020018281038252602181526020018061236b6021913960400191505060405180910390fd5b600061143083836040518060400160405280601a81526020017f536166654d6174683a206469766973696f6e206279207a65726f000000000000815250611f39565b600061143083836040518060400160405280601e81526020017f536166654d6174683a207375627472616374696f6e206f766572666c6f770000815250611fdb565b600154604080517f70a08231000000000000000000000000000000000000000000000000000000008152306004820152905160009273ffffffffffffffffffffffffffffffffffffffff16916370a08231916024808301926020929190829003018186803b1580156118ff57600080fd5b505afa158015611913573d6000803e3d6000fd5b505050506040513d602081101561192957600080fd5b50519050808211156119e357600154604080517fa9059cbb00000000000000000000000000000000000000000000000000000000815273ffffffffffffffffffffffffffffffffffffffff8681166004830152602482018590529151919092169163a9059cbb9160448083019260209291908290030181600087803b1580156119b157600080fd5b505af11580156119c5573d6000803e3d6000fd5b505050506040513d60208110156119db57600080fd5b50611a8c9050565b600154604080517fa9059cbb00000000000000000000000000000000000000000000000000000000815273ffffffffffffffffffffffffffffffffffffffff8681166004830152602482018690529151919092169163a9059cbb9160448083019260209291908290030181600087803b158015611a5f57600080fd5b505af1158015611a73573d6000803e3d6000fd5b505050506040513d6020811015611a8957600080fd5b50505b505050565b6040805173ffffffffffffffffffffffffffffffffffffffff8416602482015260448082018490528251808303909101815260649091019091526020810180517bffffffffffffffffffffffffffffffffffffffffffffffffffffffff167fa9059cbb00000000000000000000000000000000000000000000000000000000179052611a8c908490612035565b801580611bca5750604080517fdd62ed3e00000000000000000000000000000000000000000000000000000000815230600482015273ffffffffffffffffffffffffffffffffffffffff848116602483015291519185169163dd62ed3e91604480820192602092909190829003018186803b158015611b9c57600080fd5b505afa158015611bb0573d6000803e3d6000fd5b505050506040513d6020811015611bc657600080fd5b5051155b611c055760405162461bcd60e51b81526004018080602001828103825260368152602001806123b66036913960400191505060405180910390fd5b6040805173ffffffffffffffffffffffffffffffffffffffff8416602482015260448082018490528251808303909101815260649091019091526020810180517bffffffffffffffffffffffffffffffffffffffffffffffffffffffff167f095ea7b300000000000000000000000000000000000000000000000000000000179052611a8c908490612035565b611a8c8383836040516024018080602001848152602001838152602001828103825285818151815260200191508051906020019080838360005b83811015611ce4578181015183820152602001611ccc565b50505050905090810190601f168015611d115780820380516001836020036101000a031916815260200191505b50604080517fffffffffffffffffffffffffffffffffffffffffffffffffffffffffffffffe08184030181529190526020810180517bffffffffffffffffffffffffffffffffffffffffffffffffffffffff167f969cdd030000000000000000000000000000000000000000000000000000000017905294506120f39350505050565b611e9e848484846040516024018080602001858152602001848152602001838152602001828103825286818151815260200191508051906020019080838360005b83811015611ded578181015183820152602001611dd5565b50505050905090810190601f168015611e1a5780820380516001836020036101000a031916815260200191505b50604080517fffffffffffffffffffffffffffffffffffffffffffffffffffffffffffffffe08184030181529190526020810180517bffffffffffffffffffffffffffffffffffffffffffffffffffffffff167f08ee56660000000000000000000000000000000000000000000000000000000017905295506120f3945050505050565b50505050565b6040805173ffffffffffffffffffffffffffffffffffffffff80861660248301528416604482015260648082018490528251808303909101815260849091019091526020810180517bffffffffffffffffffffffffffffffffffffffffffffffffffffffff167f23b872dd00000000000000000000000000000000000000000000000000000000179052611e9e908590612035565b60008183611fc55760405162461bcd60e51b81526004018080602001828103825283818151815260200191508051906020019080838360005b83811015611f8a578181015183820152602001611f72565b50505050905090810190601f168015611fb75780820380516001836020036101000a031916815260200191505b509250505060405180910390fd5b506000838581611fd157fe5b0495945050505050565b6000818484111561202d5760405162461bcd60e51b8152602060048201818152835160248401528351909283926044909101919085019080838360008315611f8a578181015183820152602001611f72565b505050900390565b6060612097826040518060400160405280602081526020017f5361666545524332303a206c6f772d6c6576656c2063616c6c206661696c65648152508573ffffffffffffffffffffffffffffffffffffffff166121149092919063ffffffff16565b805190915015611a8c578080602001905160208110156120b657600080fd5b5051611a8c5760405162461bcd60e51b815260040180806020018281038252602a81526020018061238c602a913960400191505060405180910390fd5b80516a636f6e736f6c652e6c6f67602083016000808483855afa5050505050565b6060612123848460008561212b565b949350505050565b60608247101561216c5760405162461bcd60e51b81526004018080602001828103825260268152602001806123456026913960400191505060405180910390fd5b612175856122b2565b6121c6576040805162461bcd60e51b815260206004820152601d60248201527f416464726573733a2063616c6c20746f206e6f6e2d636f6e7472616374000000604482015290519081900360640190fd5b600060608673ffffffffffffffffffffffffffffffffffffffff1685876040518082805190602001908083835b6020831061223057805182527fffffffffffffffffffffffffffffffffffffffffffffffffffffffffffffffe090920191602091820191016121f3565b6001836020036101000a03801982511681845116808217855250505050505090500191505060006040518083038185875af1925050503d8060008114612292576040519150601f19603f3d011682016040523d82523d6000602084013e612297565b606091505b50915091506122a78282866122b8565b979650505050505050565b3b151590565b606083156122c7575081611430565b8251156122d75782518084602001fd5b60405162461bcd60e51b8152602060048201818152845160248401528451859391928392604401919085019080838360008315611f8a578181015183820152602001611f7256fe4f776e61626c653a206e6577206f776e657220697320746865207a65726f2061646472657373416464726573733a20696e73756666696369656e742062616c616e636520666f722063616c6c536166654d6174683a206d756c7469706c69636174696f6e206f766572666c6f775361666545524332303a204552433230206f7065726174696f6e20646964206e6f7420737563636565645361666545524332303a20617070726f76652066726f6d206e6f6e2d7a65726f20746f206e6f6e2d7a65726f20616c6c6f77616e6365a2646970667358221220073d8b74024f9d33771a111b788a53bcce6107f3ebef4ab6a91dc3509181dd2364736f6c634300060c0033",
  "devdoc": {
    "kind": "dev",
    "methods": {
      "owner()": {
        "details": "Returns the address of the current owner."
      },
      "renounceOwnership()": {
        "details": "Leaves the contract without owner. It will not be possible to call `onlyOwner` functions anymore. Can only be called by the current owner. NOTE: Renouncing ownership will leave the contract without an owner, thereby removing any functionality that is only available to the owner."
      },
      "transferOwnership(address)": {
        "details": "Transfers ownership of the contract to a new account (`newOwner`). Can only be called by the current owner."
      }
    },
    "version": 1
  },
  "userdoc": {
    "kind": "user",
    "methods": {},
    "version": 1
  },
  "storageLayout": {
    "storage": [
      {
        "astId": 687,
        "contract": "contracts/MasterChef.sol:MasterChef",
        "label": "_owner",
        "offset": 0,
        "slot": "0",
        "type": "t_address"
      },
      {
        "astId": 4678,
        "contract": "contracts/MasterChef.sol:MasterChef",
        "label": "gondola",
        "offset": 0,
        "slot": "1",
        "type": "t_contract(GondolaToken)4543"
      },
      {
        "astId": 4680,
        "contract": "contracts/MasterChef.sol:MasterChef",
        "label": "endAt",
        "offset": 0,
        "slot": "2",
        "type": "t_uint256"
      },
      {
        "astId": 4682,
        "contract": "contracts/MasterChef.sol:MasterChef",
        "label": "gondolaPerSec",
        "offset": 0,
        "slot": "3",
        "type": "t_uint256"
      },
      {
        "astId": 4687,
        "contract": "contracts/MasterChef.sol:MasterChef",
        "label": "migrator",
        "offset": 0,
        "slot": "4",
        "type": "t_contract(IMigratorChef)4654"
      },
      {
        "astId": 4690,
        "contract": "contracts/MasterChef.sol:MasterChef",
        "label": "poolInfo",
        "offset": 0,
        "slot": "5",
        "type": "t_array(t_struct(PoolInfo)4676_storage)dyn_storage"
      },
      {
        "astId": 4696,
        "contract": "contracts/MasterChef.sol:MasterChef",
        "label": "userInfo",
        "offset": 0,
        "slot": "6",
        "type": "t_mapping(t_uint256,t_mapping(t_address,t_struct(UserInfo)4667_storage))"
      },
      {
        "astId": 4699,
        "contract": "contracts/MasterChef.sol:MasterChef",
        "label": "totalAllocPoint",
        "offset": 0,
        "slot": "7",
        "type": "t_uint256"
      },
      {
        "astId": 4701,
        "contract": "contracts/MasterChef.sol:MasterChef",
        "label": "startAt",
        "offset": 0,
        "slot": "8",
        "type": "t_uint256"
      }
    ],
    "types": {
      "t_address": {
        "encoding": "inplace",
        "label": "address",
        "numberOfBytes": "20"
      },
      "t_array(t_struct(PoolInfo)4676_storage)dyn_storage": {
        "base": "t_struct(PoolInfo)4676_storage",
        "encoding": "dynamic_array",
        "label": "struct MasterChef.PoolInfo[]",
        "numberOfBytes": "32"
      },
      "t_contract(GondolaToken)4543": {
        "encoding": "inplace",
        "label": "contract GondolaToken",
        "numberOfBytes": "20"
      },
      "t_contract(IERC20)1764": {
        "encoding": "inplace",
        "label": "contract IERC20",
        "numberOfBytes": "20"
      },
      "t_contract(IMigratorChef)4654": {
        "encoding": "inplace",
        "label": "contract IMigratorChef",
        "numberOfBytes": "20"
      },
      "t_mapping(t_address,t_struct(UserInfo)4667_storage)": {
        "encoding": "mapping",
        "key": "t_address",
        "label": "mapping(address => struct MasterChef.UserInfo)",
        "numberOfBytes": "32",
        "value": "t_struct(UserInfo)4667_storage"
      },
      "t_mapping(t_uint256,t_mapping(t_address,t_struct(UserInfo)4667_storage))": {
        "encoding": "mapping",
        "key": "t_uint256",
        "label": "mapping(uint256 => mapping(address => struct MasterChef.UserInfo))",
        "numberOfBytes": "32",
        "value": "t_mapping(t_address,t_struct(UserInfo)4667_storage)"
      },
      "t_struct(PoolInfo)4676_storage": {
        "encoding": "inplace",
        "label": "struct MasterChef.PoolInfo",
        "members": [
          {
            "astId": 4669,
            "contract": "contracts/MasterChef.sol:MasterChef",
            "label": "lpToken",
            "offset": 0,
            "slot": "0",
            "type": "t_contract(IERC20)1764"
          },
          {
            "astId": 4671,
            "contract": "contracts/MasterChef.sol:MasterChef",
            "label": "allocPoint",
            "offset": 0,
            "slot": "1",
            "type": "t_uint256"
          },
          {
            "astId": 4673,
            "contract": "contracts/MasterChef.sol:MasterChef",
            "label": "lastRewardAt",
            "offset": 0,
            "slot": "2",
            "type": "t_uint256"
          },
          {
            "astId": 4675,
            "contract": "contracts/MasterChef.sol:MasterChef",
            "label": "accGondolaPerShare",
            "offset": 0,
            "slot": "3",
            "type": "t_uint256"
          }
        ],
        "numberOfBytes": "128"
      },
      "t_struct(UserInfo)4667_storage": {
        "encoding": "inplace",
        "label": "struct MasterChef.UserInfo",
        "members": [
          {
            "astId": 4664,
            "contract": "contracts/MasterChef.sol:MasterChef",
            "label": "amount",
            "offset": 0,
            "slot": "0",
            "type": "t_uint256"
          },
          {
            "astId": 4666,
            "contract": "contracts/MasterChef.sol:MasterChef",
            "label": "rewardDebt",
            "offset": 0,
            "slot": "1",
            "type": "t_uint256"
          }
        ],
        "numberOfBytes": "64"
      },
      "t_uint256": {
        "encoding": "inplace",
        "label": "uint256",
        "numberOfBytes": "32"
      }
    }
  }
}