{
  "address": "0x34C8712Cc527a8E6834787Bd9e3AD4F2537B0f50",
  "abi": [
    {
      "inputs": [
        {
          "internalType": "contract GondolaToken",
          "name": "_gondola",
          "type": "address"
        }
      ],
      "stateMutability": "nonpayable",
      "type": "constructor"
    },
    {
      "anonymous": false,
      "inputs": [
        {
          "indexed": true,
          "internalType": "address",
          "name": "user",
          "type": "address"
        },
        {
          "indexed": true,
          "internalType": "uint256",
          "name": "pid",
          "type": "uint256"
        },
        {
          "indexed": false,
          "internalType": "uint256",
          "name": "amount",
          "type": "uint256"
        }
      ],
      "name": "Deposit",
      "type": "event"
    },
    {
      "anonymous": false,
      "inputs": [
        {
          "indexed": true,
          "internalType": "address",
          "name": "user",
          "type": "address"
        },
        {
          "indexed": true,
          "internalType": "uint256",
          "name": "pid",
          "type": "uint256"
        },
        {
          "indexed": false,
          "internalType": "uint256",
          "name": "amount",
          "type": "uint256"
        }
      ],
      "name": "EmergencyWithdraw",
      "type": "event"
    },
    {
      "anonymous": false,
      "inputs": [
        {
          "indexed": true,
          "internalType": "address",
          "name": "previousOwner",
          "type": "address"
        },
        {
          "indexed": true,
          "internalType": "address",
          "name": "newOwner",
          "type": "address"
        }
      ],
      "name": "OwnershipTransferred",
      "type": "event"
    },
    {
      "anonymous": false,
      "inputs": [
        {
          "indexed": true,
          "internalType": "address",
          "name": "user",
          "type": "address"
        },
        {
          "indexed": true,
          "internalType": "uint256",
          "name": "pid",
          "type": "uint256"
        },
        {
          "indexed": false,
          "internalType": "uint256",
          "name": "amount",
          "type": "uint256"
        }
      ],
      "name": "Withdraw",
      "type": "event"
    },
    {
      "inputs": [],
      "name": "BONUS_MULTIPLIER",
      "outputs": [
        {
          "internalType": "uint256",
          "name": "",
          "type": "uint256"
        }
      ],
      "stateMutability": "view",
      "type": "function"
    },
    {
      "inputs": [
        {
          "internalType": "uint256",
          "name": "_allocPoint",
          "type": "uint256"
        },
        {
          "internalType": "contract IERC20",
          "name": "_lpToken",
          "type": "address"
        },
        {
          "internalType": "bool",
          "name": "_withUpdate",
          "type": "bool"
        }
      ],
      "name": "add",
      "outputs": [],
      "stateMutability": "nonpayable",
      "type": "function"
    },
    {
      "inputs": [
        {
          "internalType": "uint256",
          "name": "_pid",
          "type": "uint256"
        },
        {
          "internalType": "uint256",
          "name": "_amount",
          "type": "uint256"
        }
      ],
      "name": "deposit",
      "outputs": [],
      "stateMutability": "nonpayable",
      "type": "function"
    },
    {
      "inputs": [
        {
          "internalType": "uint256",
          "name": "_pid",
          "type": "uint256"
        }
      ],
      "name": "emergencyWithdraw",
      "outputs": [],
      "stateMutability": "nonpayable",
      "type": "function"
    },
    {
      "inputs": [],
      "name": "endAt",
      "outputs": [
        {
          "internalType": "uint256",
          "name": "",
          "type": "uint256"
        }
      ],
      "stateMutability": "view",
      "type": "function"
    },
    {
      "inputs": [
        {
          "internalType": "uint256",
          "name": "_from",
          "type": "uint256"
        },
        {
          "internalType": "uint256",
          "name": "_to",
          "type": "uint256"
        }
      ],
      "name": "getMultiplier",
      "outputs": [
        {
          "internalType": "uint256",
          "name": "",
          "type": "uint256"
        }
      ],
      "stateMutability": "view",
      "type": "function"
    },
    {
      "inputs": [],
      "name": "gondola",
      "outputs": [
        {
          "internalType": "contract GondolaToken",
          "name": "",
          "type": "address"
        }
      ],
      "stateMutability": "view",
      "type": "function"
    },
    {
      "inputs": [],
      "name": "gondolaPerSec",
      "outputs": [
        {
          "internalType": "uint256",
          "name": "",
          "type": "uint256"
        }
      ],
      "stateMutability": "view",
      "type": "function"
    },
    {
      "inputs": [],
      "name": "massUpdatePools",
      "outputs": [],
      "stateMutability": "nonpayable",
      "type": "function"
    },
    {
      "inputs": [
        {
          "internalType": "uint256",
          "name": "_pid",
          "type": "uint256"
        }
      ],
      "name": "migrate",
      "outputs": [],
      "stateMutability": "nonpayable",
      "type": "function"
    },
    {
      "inputs": [],
      "name": "migrator",
      "outputs": [
        {
          "internalType": "contract IMigratorChef",
          "name": "",
          "type": "address"
        }
      ],
      "stateMutability": "view",
      "type": "function"
    },
    {
      "inputs": [],
      "name": "owner",
      "outputs": [
        {
          "internalType": "address",
          "name": "",
          "type": "address"
        }
      ],
      "stateMutability": "view",
      "type": "function"
    },
    {
      "inputs": [
        {
          "internalType": "uint256",
          "name": "_pid",
          "type": "uint256"
        },
        {
          "internalType": "address",
          "name": "_user",
          "type": "address"
        }
      ],
      "name": "pendingGondola",
      "outputs": [
        {
          "internalType": "uint256",
          "name": "",
          "type": "uint256"
        }
      ],
      "stateMutability": "view",
      "type": "function"
    },
    {
      "inputs": [
        {
          "internalType": "uint256",
          "name": "",
          "type": "uint256"
        }
      ],
      "name": "poolInfo",
      "outputs": [
        {
          "internalType": "contract IERC20",
          "name": "lpToken",
          "type": "address"
        },
        {
          "internalType": "uint256",
          "name": "allocPoint",
          "type": "uint256"
        },
        {
          "internalType": "uint256",
          "name": "lastRewardAt",
          "type": "uint256"
        },
        {
          "internalType": "uint256",
          "name": "accGondolaPerShare",
          "type": "uint256"
        }
      ],
      "stateMutability": "view",
      "type": "function"
    },
    {
      "inputs": [],
      "name": "poolLength",
      "outputs": [
        {
          "internalType": "uint256",
          "name": "",
          "type": "uint256"
        }
      ],
      "stateMutability": "view",
      "type": "function"
    },
    {
      "inputs": [],
      "name": "renounceOwnership",
      "outputs": [],
      "stateMutability": "nonpayable",
      "type": "function"
    },
    {
      "inputs": [
        {
          "internalType": "uint256",
          "name": "_pid",
          "type": "uint256"
        },
        {
          "internalType": "uint256",
          "name": "_allocPoint",
          "type": "uint256"
        },
        {
          "internalType": "bool",
          "name": "_withUpdate",
          "type": "bool"
        }
      ],
      "name": "set",
      "outputs": [],
      "stateMutability": "nonpayable",
      "type": "function"
    },
    {
      "inputs": [
        {
          "internalType": "contract IMigratorChef",
          "name": "_migrator",
          "type": "address"
        }
      ],
      "name": "setMigrator",
      "outputs": [],
      "stateMutability": "nonpayable",
      "type": "function"
    },
    {
      "inputs": [
        {
          "internalType": "uint256",
          "name": "_startAt",
          "type": "uint256"
        },
        {
          "internalType": "uint256",
          "name": "_endAt",
          "type": "uint256"
        },
        {
          "internalType": "uint256",
          "name": "_gondolaPerSec",
          "type": "uint256"
        }
      ],
      "name": "setRewards",
      "outputs": [],
      "stateMutability": "nonpayable",
      "type": "function"
    },
    {
      "inputs": [],
      "name": "startAt",
      "outputs": [
        {
          "internalType": "uint256",
          "name": "",
          "type": "uint256"
        }
      ],
      "stateMutability": "view",
      "type": "function"
    },
    {
      "inputs": [],
      "name": "totalAllocPoint",
      "outputs": [
        {
          "internalType": "uint256",
          "name": "",
          "type": "uint256"
        }
      ],
      "stateMutability": "view",
      "type": "function"
    },
    {
      "inputs": [
        {
          "internalType": "address",
          "name": "newOwner",
          "type": "address"
        }
      ],
      "name": "transferOwnership",
      "outputs": [],
      "stateMutability": "nonpayable",
      "type": "function"
    },
    {
      "inputs": [
        {
          "internalType": "uint256",
          "name": "_pid",
          "type": "uint256"
        }
      ],
      "name": "updatePool",
      "outputs": [],
      "stateMutability": "nonpayable",
      "type": "function"
    },
    {
      "inputs": [
        {
          "internalType": "uint256",
          "name": "",
          "type": "uint256"
        },
        {
          "internalType": "address",
          "name": "",
          "type": "address"
        }
      ],
      "name": "userInfo",
      "outputs": [
        {
          "internalType": "uint256",
          "name": "amount",
          "type": "uint256"
        },
        {
          "internalType": "uint256",
          "name": "rewardDebt",
          "type": "uint256"
        }
      ],
      "stateMutability": "view",
      "type": "function"
    },
    {
      "inputs": [
        {
          "internalType": "uint256",
          "name": "_pid",
          "type": "uint256"
        },
        {
          "internalType": "uint256",
          "name": "_amount",
          "type": "uint256"
        }
      ],
      "name": "withdraw",
      "outputs": [],
      "stateMutability": "nonpayable",
      "type": "function"
    }
  ],
  "transactionHash": "0x61a6f57ac1b6e1e5bdaa7c1de3015d0458887b4574fe498537efcff016250dc5",
  "args": [
    "0xD606199557c8Ab6F4Cc70bD03FaCc96ca576f142"
  ],
  "solcInputHash": "7dd8fef667c2506bf86624a4fca256d5",
  "bytecode": "0x6080604052600060075534801561001557600080fd5b50604051611f0d380380611f0d8339818101604052602081101561003857600080fd5b505160006100446100b3565b600080546001600160a01b0319166001600160a01b0383169081178255604051929350917f8be0079c531659141344cd1fd0a4f28419497f9722a3daafe3b4186f6b6457e0908290a350600180546001600160a01b0319166001600160a01b03929092169190911790556100b7565b3390565b611e47806100c66000396000f3fe608060405234801561001057600080fd5b50600436106101a35760003560e01c806364482f79116100ee5780638da5cb5b11610097578063c744656511610071578063c744656514610408578063e2bbb15814610410578063f2fde38b14610433578063f36d1e4e14610459576101a3565b80638da5cb5b146103985780638dbb1e3a146103a057806393f1a40b146103c3576101a3565b80637cc3ae8c116100c85780637cc3ae8c146103805780637cd07e47146103885780638aa2855014610390576101a3565b806364482f79146103295780636b03ac5f14610354578063715018a614610378576101a3565b80633eb181961161015057806351eb05a61161012a57806351eb05a6146102e75780635312ea8e14610304578063630b5ba114610321576101a3565b80633eb181961461027b578063441a3e70146102a7578063454b0608146102ca576101a3565b80631eaaa045116101815780631eaaa0451461021757806323cf31181461024d5780633539c4fd14610273576101a3565b8063081e3eda146101a85780631526fe27146101c257806317caf6f11461020f575b600080fd5b6101b0610482565b60408051918252519081900360200190f35b6101df600480360360208110156101d857600080fd5b5035610488565b604080516001600160a01b0390951685526020850193909352838301919091526060830152519081900360800190f35b6101b06104c9565b61024b6004803603606081101561022d57600080fd5b508035906001600160a01b03602082013516906040013515156104cf565b005b61024b6004803603602081101561026357600080fd5b50356001600160a01b031661067e565b6101b061072c565b6101b06004803603604081101561029157600080fd5b50803590602001356001600160a01b0316610732565b61024b600480360360408110156102bd57600080fd5b50803590602001356108c4565b61024b600480360360208110156102e057600080fd5b5035610a16565b61024b600480360360208110156102fd57600080fd5b5035610cea565b61024b6004803603602081101561031a57600080fd5b5035610ebb565b61024b610f56565b61024b6004803603606081101561033f57600080fd5b50803590602081013590604001351515610f79565b61035c611066565b604080516001600160a01b039092168252519081900360200190f35b61024b611075565b6101b061114b565b61035c611151565b6101b0611160565b61035c611165565b6101b0600480360360408110156103b657600080fd5b5080359060200135611174565b6103ef600480360360408110156103d957600080fd5b50803590602001356001600160a01b03166111b7565b6040805192835260208301919091528051918290030190f35b6101b06111db565b61024b6004803603604081101561042657600080fd5b50803590602001356111e1565b61024b6004803603602081101561044957600080fd5b50356001600160a01b03166112e6565b61024b6004803603606081101561046f57600080fd5b5080359060208101359060400135611412565b60055490565b6005818154811061049557fe5b600091825260209091206004909102018054600182015460028301546003909301546001600160a01b039092169350919084565b60075481565b6104d7611499565b6001600160a01b03166104e8611165565b6001600160a01b031614610543576040805162461bcd60e51b815260206004820181905260248201527f4f776e61626c653a2063616c6c6572206973206e6f7420746865206f776e6572604482015290519081900360640190fd5b801561055157610551610f56565b6000600854421161056457600854610566565b425b600754909150610576908561149d565b600755604080516080810182526001600160a01b0394851681526020810195865290810191825260006060820181815260058054600181018255925291517f036b6384b5eca791c62761152d0c79bb0604c104a5fb6f4eb0703f3154bb3db0600490920291820180547fffffffffffffffffffffffff000000000000000000000000000000000000000016919096161790945593517f036b6384b5eca791c62761152d0c79bb0604c104a5fb6f4eb0703f3154bb3db1840155517f036b6384b5eca791c62761152d0c79bb0604c104a5fb6f4eb0703f3154bb3db28301555090517f036b6384b5eca791c62761152d0c79bb0604c104a5fb6f4eb0703f3154bb3db390910155565b610686611499565b6001600160a01b0316610697611165565b6001600160a01b0316146106f2576040805162461bcd60e51b815260206004820181905260248201527f4f776e61626c653a2063616c6c6572206973206e6f7420746865206f776e6572604482015290519081900360640190fd5b600480547fffffffffffffffffffffffff0000000000000000000000000000000000000000166001600160a01b0392909216919091179055565b60035481565b6000806005848154811061074257fe5b600091825260208083208784526006825260408085206001600160a01b03898116875290845281862060049586029093016003810154815484517f70a082310000000000000000000000000000000000000000000000000000000081523098810198909852935191985093969395939492909116926370a08231926024808301939192829003018186803b1580156107d957600080fd5b505afa1580156107ed573d6000803e3d6000fd5b505050506040513d602081101561080357600080fd5b505160028501549091504211801561081a57508015155b1561088657600061082f856002015442611174565b9050600061086260075461085c8860010154610856600354876114f790919063ffffffff16565b906114f7565b90611550565b905061088161087a8461085c8464e8d4a510006114f7565b859061149d565b935050505b60006108b684600101546108b064e8d4a5100061085c8789600001546114f790919063ffffffff16565b906115b7565b955050505050505b92915050565b6000600583815481106108d357fe5b600091825260208083208684526006825260408085203386529092529220805460049092029092019250831115610951576040805162461bcd60e51b815260206004820152601260248201527f77697468647261773a206e6f7420676f6f640000000000000000000000000000604482015290519081900360640190fd5b61095a84610cea565b600061098882600101546108b064e8d4a5100061085c876003015487600001546114f790919063ffffffff16565b90506109943382611614565b81546109a090856115b7565b80835560038401546109bd9164e8d4a510009161085c91906114f7565b600183015582546109d8906001600160a01b031633866117f0565b604080518581529051869133917ff279e6a1f5e320cca91135676d9cb6e44ca8a08c0b88342bcdb1144f6511b5689181900360200190a35050505050565b6004546001600160a01b0316610a73576040805162461bcd60e51b815260206004820152601460248201527f6d6967726174653a206e6f206d69677261746f72000000000000000000000000604482015290519081900360640190fd5b600060058281548110610a8257fe5b600091825260208083206004928302018054604080517f70a082310000000000000000000000000000000000000000000000000000000081523095810195909552519195506001600160a01b0316939284926370a0823192602480840193829003018186803b158015610af457600080fd5b505afa158015610b08573d6000803e3d6000fd5b505050506040513d6020811015610b1e57600080fd5b5051600454909150610b3d906001600160a01b03848116911683611870565b6000600460009054906101000a90046001600160a01b03166001600160a01b031663ce5494bb846040518263ffffffff1660e01b815260040180826001600160a01b03168152602001915050602060405180830381600087803b158015610ba357600080fd5b505af1158015610bb7573d6000803e3d6000fd5b505050506040513d6020811015610bcd57600080fd5b5051604080517f70a0823100000000000000000000000000000000000000000000000000000000815230600482015290519192506001600160a01b038316916370a0823191602480820192602092909190829003018186803b158015610c3257600080fd5b505afa158015610c46573d6000803e3d6000fd5b505050506040513d6020811015610c5c57600080fd5b50518214610cb1576040805162461bcd60e51b815260206004820152600c60248201527f6d6967726174653a206261640000000000000000000000000000000000000000604482015290519081900360640190fd5b83547fffffffffffffffffffffffff0000000000000000000000000000000000000000166001600160a01b039190911617909255505050565b600060058281548110610cf957fe5b9060005260206000209060040201905080600201544211610d1a5750610eb8565b8054604080517f70a0823100000000000000000000000000000000000000000000000000000000815230600482015290516000926001600160a01b0316916370a08231916024808301926020929190829003018186803b158015610d7d57600080fd5b505afa158015610d91573d6000803e3d6000fd5b505050506040513d6020811015610da757600080fd5b5051905080610dbd575042600290910155610eb8565b6000610dcd836002015442611174565b90506000610df460075461085c8660010154610856600354876114f790919063ffffffff16565b600154604080517ffb9321080000000000000000000000000000000000000000000000000000000081523060048201526024810184905290519293506001600160a01b039091169163fb9321089160448082019260009290919082900301818387803b158015610e6357600080fd5b505af1158015610e77573d6000803e3d6000fd5b50505050610ea5610e9a8461085c64e8d4a51000856114f790919063ffffffff16565b60038601549061149d565b6003850155505042600290920191909155505b50565b600060058281548110610eca57fe5b60009182526020808320858452600682526040808520338087529352909320805460049093029093018054909450610f0f926001600160a01b039190911691906117f0565b80546040805191825251849133917fbb757047c2b5f3974fe26b7c10f732e7bce710b0952a71082702781e62ae05959181900360200190a360008082556001909101555050565b60055460005b81811015610f7557610f6d81610cea565b600101610f5c565b5050565b610f81611499565b6001600160a01b0316610f92611165565b6001600160a01b031614610fed576040805162461bcd60e51b815260206004820181905260248201527f4f776e61626c653a2063616c6c6572206973206e6f7420746865206f776e6572604482015290519081900360640190fd5b8015610ffb57610ffb610f56565b611038826110326005868154811061100f57fe5b9060005260206000209060040201600101546007546115b790919063ffffffff16565b9061149d565b600781905550816005848154811061104c57fe5b906000526020600020906004020160010181905550505050565b6001546001600160a01b031681565b61107d611499565b6001600160a01b031661108e611165565b6001600160a01b0316146110e9576040805162461bcd60e51b815260206004820181905260248201527f4f776e61626c653a2063616c6c6572206973206e6f7420746865206f776e6572604482015290519081900360640190fd5b600080546040516001600160a01b03909116907f8be0079c531659141344cd1fd0a4f28419497f9722a3daafe3b4186f6b6457e0908390a3600080547fffffffffffffffffffffffff0000000000000000000000000000000000000000169055565b60025481565b6004546001600160a01b031681565b600a81565b6000546001600160a01b031690565b60006008548310156111865760085492505b6002548211156111965760025491505b828210156111a6575060006108be565b6111b082846115b7565b9392505050565b60066020908152600092835260408084209091529082529020805460019091015482565b60085481565b6000600583815481106111f057fe5b6000918252602080832086845260068252604080852033865290925292206004909102909101915061122184610cea565b80541561126457600061125682600101546108b064e8d4a5100061085c876003015487600001546114f790919063ffffffff16565b90506112623382611614565b505b815461127b906001600160a01b03163330866119ca565b8054611287908461149d565b80825560038301546112a49164e8d4a510009161085c91906114f7565b6001820155604080518481529051859133917f90890809c654f11d6e72a28fa60149770a0d11ec6c92319d6ceb2bb0a4ea1a159181900360200190a350505050565b6112ee611499565b6001600160a01b03166112ff611165565b6001600160a01b03161461135a576040805162461bcd60e51b815260206004820181905260248201527f4f776e61626c653a2063616c6c6572206973206e6f7420746865206f776e6572604482015290519081900360640190fd5b6001600160a01b03811661139f5760405162461bcd60e51b8152600401808060200182810382526026815260200180611d456026913960400191505060405180910390fd5b600080546040516001600160a01b03808516939216917f8be0079c531659141344cd1fd0a4f28419497f9722a3daafe3b4186f6b6457e091a3600080547fffffffffffffffffffffffff0000000000000000000000000000000000000000166001600160a01b0392909216919091179055565b61141a611499565b6001600160a01b031661142b611165565b6001600160a01b031614611486576040805162461bcd60e51b815260206004820181905260248201527f4f776e61626c653a2063616c6c6572206973206e6f7420746865206f776e6572604482015290519081900360640190fd5b61148e610f56565b600355600255600855565b3390565b6000828201838110156111b0576040805162461bcd60e51b815260206004820152601b60248201527f536166654d6174683a206164646974696f6e206f766572666c6f770000000000604482015290519081900360640190fd5b600082611506575060006108be565b8282028284828161151357fe5b04146111b05760405162461bcd60e51b8152600401808060200182810382526021815260200180611d916021913960400191505060405180910390fd5b60008082116115a6576040805162461bcd60e51b815260206004820152601a60248201527f536166654d6174683a206469766973696f6e206279207a65726f000000000000604482015290519081900360640190fd5b8183816115af57fe5b049392505050565b60008282111561160e576040805162461bcd60e51b815260206004820152601e60248201527f536166654d6174683a207375627472616374696f6e206f766572666c6f770000604482015290519081900360640190fd5b50900390565b600154604080517f70a0823100000000000000000000000000000000000000000000000000000000815230600482015290516000926001600160a01b0316916370a08231916024808301926020929190829003018186803b15801561167857600080fd5b505afa15801561168c573d6000803e3d6000fd5b505050506040513d60208110156116a257600080fd5b505190508082111561174f57600154604080517fa9059cbb0000000000000000000000000000000000000000000000000000000081526001600160a01b038681166004830152602482018590529151919092169163a9059cbb9160448083019260209291908290030181600087803b15801561171d57600080fd5b505af1158015611731573d6000803e3d6000fd5b505050506040513d602081101561174757600080fd5b506117eb9050565b600154604080517fa9059cbb0000000000000000000000000000000000000000000000000000000081526001600160a01b038681166004830152602482018690529151919092169163a9059cbb9160448083019260209291908290030181600087803b1580156117be57600080fd5b505af11580156117d2573d6000803e3d6000fd5b505050506040513d60208110156117e857600080fd5b50505b505050565b604080516001600160a01b038416602482015260448082018490528251808303909101815260649091019091526020810180517bffffffffffffffffffffffffffffffffffffffffffffffffffffffff167fa9059cbb000000000000000000000000000000000000000000000000000000001790526117eb908490611a58565b80158061190f5750604080517fdd62ed3e0000000000000000000000000000000000000000000000000000000081523060048201526001600160a01b03848116602483015291519185169163dd62ed3e91604480820192602092909190829003018186803b1580156118e157600080fd5b505afa1580156118f5573d6000803e3d6000fd5b505050506040513d602081101561190b57600080fd5b5051155b61194a5760405162461bcd60e51b8152600401808060200182810382526036815260200180611ddc6036913960400191505060405180910390fd5b604080516001600160a01b038416602482015260448082018490528251808303909101815260649091019091526020810180517bffffffffffffffffffffffffffffffffffffffffffffffffffffffff167f095ea7b3000000000000000000000000000000000000000000000000000000001790526117eb908490611a58565b604080516001600160a01b0380861660248301528416604482015260648082018490528251808303909101815260849091019091526020810180517bffffffffffffffffffffffffffffffffffffffffffffffffffffffff167f23b872dd00000000000000000000000000000000000000000000000000000000179052611a52908590611a58565b50505050565b6060611aad826040518060400160405280602081526020017f5361666545524332303a206c6f772d6c6576656c2063616c6c206661696c6564815250856001600160a01b0316611b099092919063ffffffff16565b8051909150156117eb57808060200190516020811015611acc57600080fd5b50516117eb5760405162461bcd60e51b815260040180806020018281038252602a815260200180611db2602a913960400191505060405180910390fd5b6060611b188484600085611b20565b949350505050565b606082471015611b615760405162461bcd60e51b8152600401808060200182810382526026815260200180611d6b6026913960400191505060405180910390fd5b611b6a85611c9a565b611bbb576040805162461bcd60e51b815260206004820152601d60248201527f416464726573733a2063616c6c20746f206e6f6e2d636f6e7472616374000000604482015290519081900360640190fd5b60006060866001600160a01b031685876040518082805190602001908083835b60208310611c1857805182527fffffffffffffffffffffffffffffffffffffffffffffffffffffffffffffffe09092019160209182019101611bdb565b6001836020036101000a03801982511681845116808217855250505050505090500191505060006040518083038185875af1925050503d8060008114611c7a576040519150601f19603f3d011682016040523d82523d6000602084013e611c7f565b606091505b5091509150611c8f828286611ca0565b979650505050505050565b3b151590565b60608315611caf5750816111b0565b825115611cbf5782518084602001fd5b8160405162461bcd60e51b81526004018080602001828103825283818151815260200191508051906020019080838360005b83811015611d09578181015183820152602001611cf1565b50505050905090810190601f168015611d365780820380516001836020036101000a031916815260200191505b509250505060405180910390fdfe4f776e61626c653a206e6577206f776e657220697320746865207a65726f2061646472657373416464726573733a20696e73756666696369656e742062616c616e636520666f722063616c6c536166654d6174683a206d756c7469706c69636174696f6e206f766572666c6f775361666545524332303a204552433230206f7065726174696f6e20646964206e6f7420737563636565645361666545524332303a20617070726f76652066726f6d206e6f6e2d7a65726f20746f206e6f6e2d7a65726f20616c6c6f77616e6365a2646970667358221220be8bb89fa22fa309fba5c9e67279f32a1a1f838db719d6fce6f9d173fa00af7364736f6c634300060c0033",
  "devdoc": {
    "kind": "dev",
    "methods": {
      "owner()": {
        "details": "Returns the address of the current owner."
      },
      "renounceOwnership()": {
        "details": "Leaves the contract without owner. It will not be possible to call `onlyOwner` functions anymore. Can only be called by the current owner. NOTE: Renouncing ownership will leave the contract without an owner, thereby removing any functionality that is only available to the owner."
      },
      "transferOwnership(address)": {
        "details": "Transfers ownership of the contract to a new account (`newOwner`). Can only be called by the current owner."
      }
    },
    "version": 1
  },
  "userdoc": {
    "kind": "user",
    "methods": {},
    "version": 1
  },
  "storageLayout": {
    "storage": [
      {
        "astId": 664,
        "contract": "contracts/MasterChef.sol:MasterChef",
        "label": "_owner",
        "offset": 0,
        "slot": "0",
        "type": "t_address"
      },
      {
        "astId": 4818,
        "contract": "contracts/MasterChef.sol:MasterChef",
        "label": "gondola",
        "offset": 0,
        "slot": "1",
        "type": "t_contract(GondolaToken)4684"
      },
      {
        "astId": 4820,
        "contract": "contracts/MasterChef.sol:MasterChef",
        "label": "endAt",
        "offset": 0,
        "slot": "2",
        "type": "t_uint256"
      },
      {
        "astId": 4822,
        "contract": "contracts/MasterChef.sol:MasterChef",
        "label": "gondolaPerSec",
        "offset": 0,
        "slot": "3",
        "type": "t_uint256"
      },
      {
        "astId": 4827,
        "contract": "contracts/MasterChef.sol:MasterChef",
        "label": "migrator",
        "offset": 0,
        "slot": "4",
        "type": "t_contract(IMigratorChef)4794"
      },
      {
        "astId": 4830,
        "contract": "contracts/MasterChef.sol:MasterChef",
        "label": "poolInfo",
        "offset": 0,
        "slot": "5",
        "type": "t_array(t_struct(PoolInfo)4816_storage)dyn_storage"
      },
      {
        "astId": 4836,
        "contract": "contracts/MasterChef.sol:MasterChef",
        "label": "userInfo",
        "offset": 0,
        "slot": "6",
        "type": "t_mapping(t_uint256,t_mapping(t_address,t_struct(UserInfo)4807_storage))"
      },
      {
        "astId": 4839,
        "contract": "contracts/MasterChef.sol:MasterChef",
        "label": "totalAllocPoint",
        "offset": 0,
        "slot": "7",
        "type": "t_uint256"
      },
      {
        "astId": 4841,
        "contract": "contracts/MasterChef.sol:MasterChef",
        "label": "startAt",
        "offset": 0,
        "slot": "8",
        "type": "t_uint256"
      }
    ],
    "types": {
      "t_address": {
        "encoding": "inplace",
        "label": "address",
        "numberOfBytes": "20"
      },
      "t_array(t_struct(PoolInfo)4816_storage)dyn_storage": {
        "base": "t_struct(PoolInfo)4816_storage",
        "encoding": "dynamic_array",
        "label": "struct MasterChef.PoolInfo[]",
        "numberOfBytes": "32"
      },
      "t_contract(GondolaToken)4684": {
        "encoding": "inplace",
        "label": "contract GondolaToken",
        "numberOfBytes": "20"
      },
      "t_contract(IERC20)1830": {
        "encoding": "inplace",
        "label": "contract IERC20",
        "numberOfBytes": "20"
      },
      "t_contract(IMigratorChef)4794": {
        "encoding": "inplace",
        "label": "contract IMigratorChef",
        "numberOfBytes": "20"
      },
      "t_mapping(t_address,t_struct(UserInfo)4807_storage)": {
        "encoding": "mapping",
        "key": "t_address",
        "label": "mapping(address => struct MasterChef.UserInfo)",
        "numberOfBytes": "32",
        "value": "t_struct(UserInfo)4807_storage"
      },
      "t_mapping(t_uint256,t_mapping(t_address,t_struct(UserInfo)4807_storage))": {
        "encoding": "mapping",
        "key": "t_uint256",
        "label": "mapping(uint256 => mapping(address => struct MasterChef.UserInfo))",
        "numberOfBytes": "32",
        "value": "t_mapping(t_address,t_struct(UserInfo)4807_storage)"
      },
      "t_struct(PoolInfo)4816_storage": {
        "encoding": "inplace",
        "label": "struct MasterChef.PoolInfo",
        "members": [
          {
            "astId": 4809,
            "contract": "contracts/MasterChef.sol:MasterChef",
            "label": "lpToken",
            "offset": 0,
            "slot": "0",
            "type": "t_contract(IERC20)1830"
          },
          {
            "astId": 4811,
            "contract": "contracts/MasterChef.sol:MasterChef",
            "label": "allocPoint",
            "offset": 0,
            "slot": "1",
            "type": "t_uint256"
          },
          {
            "astId": 4813,
            "contract": "contracts/MasterChef.sol:MasterChef",
            "label": "lastRewardAt",
            "offset": 0,
            "slot": "2",
            "type": "t_uint256"
          },
          {
            "astId": 4815,
            "contract": "contracts/MasterChef.sol:MasterChef",
            "label": "accGondolaPerShare",
            "offset": 0,
            "slot": "3",
            "type": "t_uint256"
          }
        ],
        "numberOfBytes": "128"
      },
      "t_struct(UserInfo)4807_storage": {
        "encoding": "inplace",
        "label": "struct MasterChef.UserInfo",
        "members": [
          {
            "astId": 4804,
            "contract": "contracts/MasterChef.sol:MasterChef",
            "label": "amount",
            "offset": 0,
            "slot": "0",
            "type": "t_uint256"
          },
          {
            "astId": 4806,
            "contract": "contracts/MasterChef.sol:MasterChef",
            "label": "rewardDebt",
            "offset": 0,
            "slot": "1",
            "type": "t_uint256"
          }
        ],
        "numberOfBytes": "64"
      },
      "t_uint256": {
        "encoding": "inplace",
        "label": "uint256",
        "numberOfBytes": "32"
      }
    }
  }
}