{
  "address": "0x6733A60E7Ed7250193A593Ae62B4148e712c69fB",
  "abi": [
    {
      "inputs": [
        {
          "internalType": "address",
          "name": "tokenContract",
          "type": "address"
        }
      ],
      "stateMutability": "nonpayable",
      "type": "constructor"
    },
    {
      "anonymous": false,
      "inputs": [
        {
          "indexed": false,
          "internalType": "address",
          "name": "sender",
          "type": "address"
        },
        {
          "indexed": false,
          "internalType": "uint256",
          "name": "amount",
          "type": "uint256"
        },
        {
          "indexed": false,
          "internalType": "uint256",
          "name": "releaseTime",
          "type": "uint256"
        }
      ],
      "name": "LogLockBoxDeposit",
      "type": "event"
    },
    {
      "anonymous": false,
      "inputs": [
        {
          "indexed": false,
          "internalType": "address",
          "name": "sender",
          "type": "address"
        },
        {
          "indexed": false,
          "internalType": "address",
          "name": "to",
          "type": "address"
        },
        {
          "indexed": false,
          "internalType": "uint256",
          "name": "amount",
          "type": "uint256"
        },
        {
          "indexed": false,
          "internalType": "uint256",
          "name": "releaseTime",
          "type": "uint256"
        }
      ],
      "name": "LogLockBoxTransfer",
      "type": "event"
    },
    {
      "anonymous": false,
      "inputs": [
        {
          "indexed": false,
          "internalType": "address",
          "name": "receiver",
          "type": "address"
        },
        {
          "indexed": false,
          "internalType": "uint256",
          "name": "amount",
          "type": "uint256"
        }
      ],
      "name": "LogLockBoxWithdrawal",
      "type": "event"
    },
    {
      "inputs": [
        {
          "internalType": "address",
          "name": "beneficiary",
          "type": "address"
        },
        {
          "internalType": "uint256",
          "name": "amount",
          "type": "uint256"
        },
        {
          "internalType": "uint256",
          "name": "releaseTime",
          "type": "uint256"
        }
      ],
      "name": "deposit",
      "outputs": [],
      "stateMutability": "nonpayable",
      "type": "function"
    },
    {
      "inputs": [
        {
          "internalType": "uint256",
          "name": "",
          "type": "uint256"
        }
      ],
      "name": "lockBoxStructs",
      "outputs": [
        {
          "internalType": "address",
          "name": "beneficiary",
          "type": "address"
        },
        {
          "internalType": "uint256",
          "name": "balance",
          "type": "uint256"
        },
        {
          "internalType": "uint256",
          "name": "releaseTime",
          "type": "uint256"
        }
      ],
      "stateMutability": "view",
      "type": "function"
    },
    {
      "inputs": [
        {
          "internalType": "uint256",
          "name": "lockBoxNumber",
          "type": "uint256"
        },
        {
          "internalType": "address",
          "name": "beneficiary",
          "type": "address"
        },
        {
          "internalType": "uint256",
          "name": "amount",
          "type": "uint256"
        },
        {
          "internalType": "uint256",
          "name": "releaseTime",
          "type": "uint256"
        }
      ],
      "name": "transferLockedFunds",
      "outputs": [],
      "stateMutability": "nonpayable",
      "type": "function"
    },
    {
      "inputs": [
        {
          "internalType": "uint256",
          "name": "lockBoxNumber",
          "type": "uint256"
        }
      ],
      "name": "withdraw",
      "outputs": [],
      "stateMutability": "nonpayable",
      "type": "function"
    }
  ],
  "transactionHash": "0x8c25bd3749f9c72d9c913e3082eaa63670f6294c35be63a0182990bc9e83e1ae",
  "args": [
    "0x899A5336c9F9335f387cdFCC59aB02a7c6A3128F"
  ],
  "solcInputHash": "d9e44ebb662310ef93e761c9a7f3cdf6",
  "bytecode": "0x608060405234801561001057600080fd5b506040516107ab3803806107ab8339818101604052602081101561003357600080fd5b5051600080546001600160a01b039092166001600160a01b0319909216919091179055610746806100656000396000f3fe608060405234801561001057600080fd5b506004361061004c5760003560e01c80630efe6a8b146100515780632e1a7d4d146100925780633d8cf56f146100af578063a5a3b56a14610101575b600080fd5b6100906004803603606081101561006757600080fd5b5073ffffffffffffffffffffffffffffffffffffffff8135169060208101359060400135610146565b005b610090600480360360208110156100a857600080fd5b5035610328565b6100cc600480360360208110156100c557600080fd5b5035610479565b6040805173ffffffffffffffffffffffffffffffffffffffff9094168452602084019290925282820152519081900360600190f35b6100906004803603608081101561011757600080fd5b5080359073ffffffffffffffffffffffffffffffffffffffff60208201351690604081013590606001356104c0565b60008054604080517f23b872dd00000000000000000000000000000000000000000000000000000000815233600482015230602482015260448101869052905173ffffffffffffffffffffffffffffffffffffffff909216926323b872dd926064808401936020939083900390910190829087803b1580156101c757600080fd5b505af11580156101db573d6000803e3d6000fd5b505050506040513d60208110156101f157600080fd5b50516101fc57600080fd5b6102046106d9565b73ffffffffffffffffffffffffffffffffffffffff84811682526020808301858152604080850186815260018054808201825560009190915286517fb10e2d527612073b26eecdfd717e6a320cf44b4afac2b0732d9fcbe2b7fa0cf6600390920291820180547fffffffffffffffffffffffff000000000000000000000000000000000000000016919097161790955591517fb10e2d527612073b26eecdfd717e6a320cf44b4afac2b0732d9fcbe2b7fa0cf785015590517fb10e2d527612073b26eecdfd717e6a320cf44b4afac2b0732d9fcbe2b7fa0cf890930192909255815133815290810185905280820184905290517fcf2fafad2e64ab2802e3c57893f71b2645379029535db982282b4b24f4ff567a916060908290030190a150505050565b60006001828154811061033757fe5b60009182526020909120600390910201805490915073ffffffffffffffffffffffffffffffffffffffff16331461036d57600080fd5b428160020154111561037e57600080fd5b6001810180546000909155604080513381526020810183905281517f4ee0bce2f3dfb53dc0564ce5a7e1934da5c7866b06ba77f86c397b7b976a3144929181900390910190a160008054604080517fa9059cbb00000000000000000000000000000000000000000000000000000000815233600482015260248101859052905173ffffffffffffffffffffffffffffffffffffffff9092169263a9059cbb926044808401936020939083900390910190829087803b15801561043f57600080fd5b505af1158015610453573d6000803e3d6000fd5b505050506040513d602081101561046957600080fd5b505161047457600080fd5b505050565b6001818154811061048657fe5b600091825260209091206003909102018054600182015460029092015473ffffffffffffffffffffffffffffffffffffffff909116925083565b6000600185815481106104cf57fe5b60009182526020909120600390910201805490915073ffffffffffffffffffffffffffffffffffffffff16331461050557600080fd5b806002015482101561051657600080fd5b60018101546105258185610662565b60018301556105326106d9565b73ffffffffffffffffffffffffffffffffffffffff8681168083526020808401888152604080860189815260018054808201825560009190915287517fb10e2d527612073b26eecdfd717e6a320cf44b4afac2b0732d9fcbe2b7fa0cf6600390920291820180547fffffffffffffffffffffffff000000000000000000000000000000000000000016919098161790965591517fb10e2d527612073b26eecdfd717e6a320cf44b4afac2b0732d9fcbe2b7fa0cf786015590517fb10e2d527612073b26eecdfd717e6a320cf44b4afac2b0732d9fcbe2b7fa0cf8909401939093558251338152908101919091528082018790526060810186905290517f614f32196381ff8d7a5e5d873a32330cc4e578ee3bb9f69aaf081d68cd45e0ab916080908290030190a150505050505050565b6000828211156106d357604080517f08c379a000000000000000000000000000000000000000000000000000000000815260206004820152601e60248201527f536166654d6174683a207375627472616374696f6e206f766572666c6f770000604482015290519081900360640190fd5b50900390565b6040518060600160405280600073ffffffffffffffffffffffffffffffffffffffff1681526020016000815260200160008152509056fea2646970667358221220f7633ffa93e9abcde0c9b5991b7ad9a2781bf62a6c9ac09ab439b6882326fbb164736f6c634300060c0033",
  "devdoc": {
    "kind": "dev",
    "methods": {},
    "version": 1
  },
  "userdoc": {
    "kind": "user",
    "methods": {},
    "version": 1
  },
  "storageLayout": {
    "storage": [
      {
        "astId": 10590,
        "contract": "contracts/TimeLock.sol:TimeLock",
        "label": "token",
        "offset": 0,
        "slot": "0",
        "type": "t_contract(IERC20)1830"
      },
      {
        "astId": 10600,
        "contract": "contracts/TimeLock.sol:TimeLock",
        "label": "lockBoxStructs",
        "offset": 0,
        "slot": "1",
        "type": "t_array(t_struct(LockBoxStruct)10597_storage)dyn_storage"
      }
    ],
    "types": {
      "t_address": {
        "encoding": "inplace",
        "label": "address",
        "numberOfBytes": "20"
      },
      "t_array(t_struct(LockBoxStruct)10597_storage)dyn_storage": {
        "base": "t_struct(LockBoxStruct)10597_storage",
        "encoding": "dynamic_array",
        "label": "struct TimeLock.LockBoxStruct[]",
        "numberOfBytes": "32"
      },
      "t_contract(IERC20)1830": {
        "encoding": "inplace",
        "label": "contract IERC20",
        "numberOfBytes": "20"
      },
      "t_struct(LockBoxStruct)10597_storage": {
        "encoding": "inplace",
        "label": "struct TimeLock.LockBoxStruct",
        "members": [
          {
            "astId": 10592,
            "contract": "contracts/TimeLock.sol:TimeLock",
            "label": "beneficiary",
            "offset": 0,
            "slot": "0",
            "type": "t_address"
          },
          {
            "astId": 10594,
            "contract": "contracts/TimeLock.sol:TimeLock",
            "label": "balance",
            "offset": 0,
            "slot": "1",
            "type": "t_uint256"
          },
          {
            "astId": 10596,
            "contract": "contracts/TimeLock.sol:TimeLock",
            "label": "releaseTime",
            "offset": 0,
            "slot": "2",
            "type": "t_uint256"
          }
        ],
        "numberOfBytes": "96"
      },
      "t_uint256": {
        "encoding": "inplace",
        "label": "uint256",
        "numberOfBytes": "32"
      }
    }
  }
}